S012000053656E736F726C616D702E73726563EE
S11300000C94A1010C94C2010C94C2010C94C20181
S11300100C94C2010C94C2010C94C2010C94C20150
S11300200C94C2010C94C2010C94C2010C94C20140
S11300300C94C2010C94C2010C94C2010C94C20130
S11300400C94C2010C94C2010C94C2010C94C20120
S11300500C94C2010C94C2010C94C2010C94C20110
S11300600C94C2010C94C2010C94C2010C94C20100
S11300700C94C2010C94C2010C94C2010C94C201F0
S11300800C94C2010C94C2010C94C2010C94C201E0
S11300900C94C2010C94C2010C94C2010C94C201D0
S11300A00C94C2010C94C2010C94C2010C94C201C0
S11300B00C94C2010C94C2010C94C2010C94E6018C
S11300C00C94C2010C94C2010C94C2010C94C201A0
S11300D00C94C2010C94C2010C94C2010C94C20190
S11300E00C94C2010C94C2010C94C2010C94C20180
S11300F00C94C2010C94C2010C94C2010C94C20170
S11301000C94C2010C94C2010C94C2010C94C2015F
S11301100C94C2010C94C2010C94C2010C94C2014F
S11301200C94C2010C94C2010C94C2010C94C2013F
S11301300C94C2010C94C2010C94C2010C94C2012F
S11301400C94C2010C94C2010C94C2010C94C2011F
S11301500C94C2010C94C2010C94C2010C94C2010F
S11301600C94C2010C94C2010C94C2010C94C201FF
S11301700C94C2010C94C2010C94C2010C94C201EF
S11301800C94C2010C94C2010C94C2010C94C201DF
S11301900C94C2010C94C2010C94C2010C94C201CF
S11301A00C9477020C94C2010C94C2010C94C20109
S11301B00C94C2010C94C2010C94C2010C94C201AF
S11301C00C94C2010C94C2010C94C2010C94C2019F
S11301D00C94C2010C94C2010C94C2010C949208B8
S11301E00C94BA080C94C2010C94C2010C94C20180
S11301F00C94C2010C94C2010C94C2010C945907D2
S11302000C9421076E616E00696E660000407A10DE
S1130210F35A00A0724E18090010A5D4E80000E8B3
S11302207648170000E40B54020000CA9A3B000011
S113023000E1F505000080969800000040420F00A0
S11302400000A08601000000102700000000E80361
S1130250000000006400000000000A00000000002C
S11302600100000000002C76D888DC674F0823DFEB
S1130270C1DFAE59E1B1B796E5E3E453C63AE651BE
S1130280997696E8E6C28426EB898C9B62ED407CE5
S11302906FFCEFBC9C9F40F2BAA56FA5F490055A81
S11302A02AF75C936B6CF9676DC11BFCE0E40D47A6
S11302B0FEF520E6B500D0ED902E030094357705C9
S11302C00080841E080000204E0A000000C80C3381
S11302D03333330F986E12831141EF8D2114893B10
S11302E0E65516CFFEE6DB18D1844B381BF77C1D90
S11302F0901DA4BBE424203284725E228100C9F1E3
S113030024ECA1E53D274E414E494E495459494EEE
S113031046CDCCCC3D0AD7233C17B7D13877CC2B6C
S1130320329595E6241FB14F0A000020410000C811
S11303304200401C4620BCBE4CCA1B0E5AAEC59D92
S1130340740011241FBECFEFCDBFDFE5DEBF00E098
S11303500CBF10E2A0E0B0E2E6E0F5E200E00BBF83
S113036002C007900D92A63DB107D9F721E2A6ED90
S1130370B0E201C01D92AD3DB207E1F70E941E0339
S11303800C9481120C94000084E080930206E0E057
S1130390F2E085E181A382E080A380E1828381830E
S11303A086E0848381E080830895E0E0F2E080A128
S11303B0806880A38091230280FFFCCFE0E0F2E01C
S11303C083A1816083A384A195A108951F920F92B4
S11303D00FB60F9211240BB60F922F933F934F93A6
S11303E05F936F937F938F939F93AF93BF93EF9399
S11303F0FF938091680683FF0DC08091D8208111FE
S113040009C081E08093D6208093D82087E190E2D0
S11304100E9468108091D820882349F08C3039F0EC
S11304208F5F8093D82085E290E20E9468108091CB
S1130430D8208C3040F18091D7208F5F8093D720D3
S113044083E490E20E9468108091680683FF09C0EB
S11304501092D72081E08093D8208EE590E20E940C
S113046068108091D720863070F08091680683FDF3
S11304700AC01092D6201092D7201092D8208DE670
S113048090E20E9468108091D6208130C1F480915E
S1130490B2218F938091B1218F938091B0218F935A
S11304A08091AF218F9380E890E29F938F930E9475
S11304B054100F900F900F900F900F900F90809109
S11304C005208F5F80930520FF91EF91BF91AF913D
S11304D09F918F917F916F915F914F913F912F9158
S11304E00F900BBE0F900FBE0F901F9018951F9288
S11304F00F920FB60F9211240BB60F921F932F93E6
S11305003F934F935F936F937F938F939F93AF9397
S1130510BF93EF93FF93CF93DF9300D0CDB7DEB7B4
S1130520AE014D5F5F4FBE016E5F7F4FCE010196FE
S11305300E94B1058B81882369F00E944A06182F16
S1130540682F84EB91E20E945705E12FF0E0EC5410
S1130550FE4D108281E090E08093D9209093DA20C0
S11305602396CDBFDEBFDF91CF91FF91EF91BF9175
S1130570AF919F918F917F916F915F914F913F9137
S11305802F911F910F900BBE0F900FBE0F901F90D5
S11305901895E0E4FAE081E19AE786A397A384E062
S11305A08083118216820895E0E0F9E083E4818378
S11305B083E080838FE097E286A397A3E0E0FAE0EC
S11305C0118285E0808381E0868381E19AE786A3B6
S11305D097A308950E94DA060E94B1066FE080E5B1
S11305E00E94A70684E00E94740680E20E948206AC
S11305F08CE00E9499068DE70E945C0681E00E94CF
S113060068060E9427060E94AC060E945E050E94AE
S11306106D05E0EAF6E082858064828782E0868B5D
S113062081858C7F8160818781E0858360E070E2D1
S113063080E00E94CF050E947C050895E0E6F6E084
S113064084E0818388E082830E94C4010E94C902FD
S11306500E94D4020E94EA0260E874E88EE190E00D
S11306600E944E08E0EAF0E08281816082837894FF
S113067084E990E29F938F930E9454100F900F90FF
S11306806EC10E94D501992324F41092AD211092D9
S1130690AE210E94D501992334F00E94D5018093A4
S11306A0AD219093AE216091AD217091AE21072EC2
S11306B0000C880B990B0E94FF0920E030E044E015
S11306C050E40E94B40A20E030E040E05AE30E9483
S11306D0B40A6093AF217093B0218093B1219093B9
S11306E0B2218091D9209091DA200197E1F484EB32
S11306F091E20E941D0FC62FD72F182F092F9F9309
S11307008F937F936F9380EA90E29F938F930E94DD
S113071054101092D9201092DA200F900F900F905D
S11307200F900F900F90809105208F3008F417C11F
S11307302DE637EE43E050E46C2F7D2F812F902F70
S11307400E94AF0A882324F010922C0910922D09DC
S11307502DE637EE43E050E46C2F7D2F812F902F50
S11307600E94570918160CF4E6C02AE037ED43E25C
S11307705CE36C2F7D2F812F902F0E94AF0A88237A
S11307800CF4D9C02EE934E142E452E46C2F7D2FFD
S1130790812F902F0E94B40A9B01AC0160E070E0AD
S11307A088EC92E40E94EA080E94CE09E62E1F9289
S11307B06F930F2EF5EBCF2EF0E2DF2EF02DDF92AC
S11307C0CF920E9454101F92FF92DF92CF920E9408
S11307D054108090AF219090B021A090B121B0909E
S11307E0B2218DB79EB708968DBF9EBF2FE832EC1D
S11307F045E75EE3C501B4010E94AF0A181624F46C
S11308000F2EF4E6FF2EF02D2FE832EC45E75EE3E1
S1130810C501B4010E94570918165CF026E535E5B8
S113082040ED53E4C501B4010E94B40A0E94CE090C
S1130830F62EDF2CDE0CEF14F8F093E69D15E0F4B1
S11308408D2D90E0845691096F2D70E0681B790B13
S1130850072E000C880B990B0E94FF0921EE3AEF3A
S113086047EC52E40E94B40A0E94CE09862F90E01D
S113087080932C0990932D09EF14E8F084E68D15EC
S1130880D0F06D2D70E06C597F4F6F0D711D072EE8
S1130890000C880B990B0E94FF0921EE3AEF47ECFC
S11308A052E40E94B40A0E94CE09862F90E08093FD
S11308B02C0990932D09FE14F8F093E69D15E0F4AD
S11308C08D2D90E0845691096F2D70E0681B790B93
S11308D0072E000C880B990B0E94FF0921EE3AEFBA
S11308E047EC52E40E94B40A0E94CE09862F90E09D
S11308F080932C0990932D09FE14E8F084E68D155D
S1130900D0F06D2D70E06C597F4F6F0D711D072E67
S1130910000C880B990B0E94FF0921EE3AEF47EC7B
S113092052E40E94B40A0E94CE09862F90E080937C
S11309302C0990932D092AE037ED43EA5CE36C2FF0
S11309407D2F812F902F0E945709181634F08FE0C5
S113095097E280932C0990932D09109205208091A1
S1130960D620813009F48DCE8111F9CF10922C0953
S113097010922D09F4CF1F93CF93DF93C0EAD6E0F2
S113098010E21E838F710E94F4068FEF0E94F4061A
S11309901D83DF91CF911F910895DF92EF92FF9213
S11309A00F931F93CF93DF938B01C42F90E2909307
S11309B0A6068F7180620E94F406D82E0AC07801C0
S11309C08FEFE81AF80AF80180810E94F406CD2F0F
S11309D08701DFEFDC0FC111F2CF80E28093A5061F
S11309E08D2DDF91CF911F910F91FF90EF90DF90AC
S11309F00895FF920F931F93CF93DF93F62EC0EACF
S1130A00D6E010E21E838F7180620E94F406082FE4
S1130A108F2D0E94F4061D83802FDF91CF911F91AB
S1130A200F91FF900895CF92DF92EF92FF920F9370
S1130A301F93CF93DF938C01D62FC0910720C61745
S1130A4008F4DC2F8091E020811102C0CD1B01C08D
S1130A50C0E080E28093A60681E60E94F406E82EB8
S1130A600BC068018FEFC81AD80A8FEF0E94F406F2
S1130A70F8018083DF2D8601FF24FA94FD0ED11145
S1130A80F0CF04C08FEF0E94F406CD2FDFEFDC0F10
S1130A90C111F8CF80E28093A5068E2DDF91CF910E
S1130AA01F910F91FF90EF90DF90CF9008950E94D7
S1130AB0130587E10E94BB04817008951F93CF93AF
S1130AC0DF93C0EAD6E010E21E8382EE0E94F406B1
S1130AD01D83DF91CF911F9108951F93CF93DF93CF
S1130AE0C0EAD6E010E21E8381EE0E94F4061D8364
S1130AF0DF91CF911F91089580E00E94BB0481FD96
S1130B000CC0682F636080E00E94F9048FE79EE3C5
S1130B100197F1F700C0000005C0682F616080E014
S1130B200E94F9048FE094E00197F1F700C00000FF
S1130B3060E787E00E94F904409106206BED70E2C3
S1130B408AE00E94CD040E945E050E946D0580E843
S1130B508093A5068FE094E00197F1F700C00000B0
S1130B600895EF92FF920F931F93CF93DF937C012D
S1130B708B01EA0160E787E00E94F904982F9072E4
S1130B80F7019083982F9071F80190838074888383
S1130B90DF91CF911F910F91FF90EF9008950F93E4
S1130BA01F93CF93DF93C82F8B01811107C040910E
S1130BB0062050E08BED90E20E940410C73080F5CF
S1130BC0C23058F4EC2FF0E0E153FF4D4091062081
S1130BD0B80180810E94CD0409C0EC2FF0E0E153FC
S1130BE0FF4D41E0B80180810E94CD04D0E0FE01B8
S1130BF0E753FF4D6091072080810E94F90482E051
S1130C000E94BB04CD53DF4D61E070E0088002C058
S1130C10660F771F0A94E2F7682B82E00E94F904BA
S1130C20DF91CF911F910F9108951F93CF93DF937D
S1130C30C0EAD6E010E21E8380E50E94F40683E752
S1130C400E94F4061D83DF91CF911F9108958DE1D9
S1130C500E94BB04682F64608DE10E94F9048DE159
S1130C600E94BB0481110AC00E9415068DE10E94F6
S1130C70BB04682F64608DE10E94F9048CE10E943A
S1130C80BB04682F6F638CE10E94F90481E08093B8
S1130C90E02008951F93CF93DF93C0EAD6E010E2DB
S1130CA01E8380E60E94F4068FEF0E94F4061D83E3
S1130CB0DF91CF911F91089588232CF0682F85E050
S1130CC00E94F90408956FE785E00E94F9040895ED
S1130CD0882329F06FE381E00E94F904089560E01D
S1130CE081E00E94F9040895CF93C82F86E00E9402
S1130CF0BB04897FC670682F6C2B86E00E94F904C0
S1130D00CF910895CF93C82F86E00E94BB04877DBE
S1130D109C2F9872682F692B86E00E94F90486E064
S1130D200E94BB04C81302C081E001C080E0CF91DF
S1130D300895CF93C82F80E00E94BB04837FCC70BA
S1130D40682F6C2B80E00E94F904CF910895682BE2
S1130D5084E00E94F904089560E787E00E94F904A2
S1130D6008958FE39CE90197F1F700C000006FE05C
S1130D7080E50E94A70686E00E94740680E20E9435
S1130D808206882319F081E08093082080E00E9485
S1130D9082068CE00E94990660E08CE10E94F904CE
S1130DA08CE40E945C060E94AC060E945E050E94D0
S1130DB06D050895E0E4F6E088E0818384E08283B1
S1130DC082E08183E0EAF6E080E2818380E482834A
S1130DD080E88183E0EAF8E088E1848380EC85831D
S1130DE0178281E0868308958093A0088091A108EA
S1130DF086FFFCCFE0EAF8E0818180648183808112
S1130E0008958091462190914521891710F0891BFE
S1130E100895891B8C590895CF93C09145210E9450
S1130E2001078823E1F3EC2FF0E0EF51FF4D8081BF
S1130E3091E09C0F943608F090E090934521CF9177
S1130E4008950E940C0790E008952091AC2191E050
S1130E50920F8091AB21943610F09DE9920F89177F
S1130E6010F0891B0895891B8C590895CF93C82FBE
S1130E7003C081E28093A30B0E9425078823C9F352
S1130E808091AC21E82FF0E0E95BFE4DC0838F5FD9
S1130E90843608F080E0E0EAF0E09281292F2E7F8A
S1130EA022838093AC2181E28093A30B9283CF9120
S1130EB00895CF93DF93D82FCFEF03C0CC2329F02D
S1130EC0C1500E9425078823C9F3CC2359F0DA3096
S1130ED019F48DE00E9436078D2F0E94360780E0BA
S1130EE090E002C081E090E0DF91CF9108954F92AD
S1130EF05F926F927F928F929F92AF92BF92CF92A6
S1130F00DF92EF92FF920F931F93CF93DF93290108
S1130F103A012E2D2170C0E1D0E002C0D595C795CD
S1130F202A95E2F70023F4F50E94FD096B017C0188
S1130F30C301B2010E94FD094B015C01DD27BE0122
S1130F40DD0F880B990B0E94FF09A50194010E94F3
S1130F50B40A9B01AC01C701B6010E945C0920E000
S1130F6030E040E85FE30E94EA086B017C0111274E
S1130F7001950CF4109561E070E002C0660F771FD4
S1130F800A95E2F7072E000C880B990B0E94FF09C3
S1130F90A70196010E94B40A0E94210B0E94CE0967
S1130FA0CB013CC00E94FD094B015C01C301B201AD
S1130FB00E94FD096B017C01BE017727072E000CFE
S1130FC0880B990B0E94FF09A70196010E94B40A9D
S1130FD09B01AC01C501B4010E945C096B017C0159
S1130FE061E070E002C0660F771F0A95E2F7072EF2
S1130FF0000C880B990B0E94FF099B01AC01C701EF
S1131000B6010E945C0920E030E040E85FE30E9402
S1131010EA080E94210B0E94CE09CB01DF91CF91F7
S11310201F910F91FF90EF90DF90CF90BF90AF9002
S11310309F908F907F906F905F904F9008954F9204
S11310405F926F927F928F929F92AF92BF92EF9234
S11310500F93CF93DF932B013C0149015A01D02F09
S1131060C9EF0CC0ED2E0C2FA5019401C301B201F0
S11310700E9477078115904118F0CF5FC83094F330
S11310808C2FDF91CF910F91EF90BF90AF909F90F5
S11310908F907F906F905F904F9008958F929F9262
S11310A0AF92BF92EF920F93CF934B015C0100E09C
S11310B020E032EC41E050E00E941F08C82FE12CF0
S11310C0082F20E032EC41E050E0C501B4010E9459
S11310D07707E0EAF6E028E1228B38E035833183B4
S11310E034E03283E0EAFBE08683C295C07F9F70E0
S11310F0C92BC783248380E28383E0EAF0E0828102
S113110083608283E5EDF1E289E090E2808391835C
S113111082839383CF910F91EF90BF90AF909F9074
S11311208F9008951F920F920FB60F9211240BB651
S11311300F928F939F93EF93FF9380914621E82F13
S1131140F0E09091A00BEF51FF4D90838F5F8436B8
S113115008F080E090914521891380934621FF9106
S1131160EF919F918F910F900BBE0F900FBE0F9038
S11311701F9018951F920F920FB60F9211240BB661
S11311800F922F938F939F93EF93FF938091AB21B3
S11311909091AC21891759F0E82FF0E0E95BFE4DFE
S11311A020812093A00B8F5F843608F080E08913A0
S11311B003C090E29093A30B8093AB21FF91EF9136
S11311C09F918F912F910F900BBE0F900FBE0F9098
S11311D01F9018955058BB27AA270E9402090C9407
S11311E0750A0E94670A38F00E946E0A20F039F4EA
S11311F09F3F19F426F40C94640A0EF4E095E7FB7F
S11312000C945E0AE92F0E94860A58F3BA17620703
S113121073078407950720F079F4A6F50C94A80ABF
S11312200EF4E0950B2EBA2FA02D0B01B9019001FD
S11312300C01CA01A0011124FF27591B99F0593F41
S113124050F4503E68F11A16F040A22F232F342F89
S11312504427585FF3CF469537952795A795F040D7
S11312605395C9F77EF41F16BA0B620B730B840BEC
S1131270BAF09150A1F0FF0FBB1F661F771F881FA4
S1131280C2F70EC0BA0F621F731F841F48F48795FC
S113129077956795B795F7959E3F08F0B0CF9395EE
S11312A0880F08F09927EE0F9795879508950E9467
S11312B03A0A08F481E008950E9470090C94750AB2
S11312C00E946E0A58F00E94670A40F029F45F3FBA
S11312D029F00C945E0A51110C94A90A0C94640A26
S11312E00E94860A68F39923B1F3552391F3951B61
S11312F0550BBB27AA2762177307840738F09F5F33
S11313005F4F220F331F441FAA1FA9F335D00E2E9F
S11313103AF0E0E832D091505040E695001CCAF70C
S11313202BD0FE2F29D0660F771F881FBB1F2617CF
S113133037074807AB07B0E809F0BB0B802DBF01A6
S1131340FF2793585F4F3AF09E3F510578F00C9475
S11313505E0A0C94A90A5F3FE4F3983ED4F38695A1
S113136077956795B795F7959F5FC9F7880F911D96
S11313709695879597F90895E1E0660F771F881F82
S1131380BB1F621773078407BA0720F0621B730B35
S1131390840BBA0BEE1F88F7E09508950E948E0A1D
S11313A088F09F5798F0B92F9927B751B0F0E1F022
S11313B0660F771F881F991F1AF0BA95C9F714C0D2
S11313C0B13091F00E94A80AB1E008950C94A80AE3
S11313D0672F782F8827B85F39F0B93FCCF386950B
S11313E077956795B395D9F73EF490958095709568
S11313F061957F4F8F4F9F4F0895E89409C097FBE5
S11314003EF490958095709561957F4F8F4F9F4FD7
S11314109923A9F0F92F96E9BB279395F69587951B
S113142077956795B795F111F8CFFAF4BB0F11F4DE
S113143060FF1BC06F5F7F4F8F4F9F4F16C0882385
S113144011F096E911C0772321F09EE8872F762FBB
S113145005C0662371F096E8862F70E060E02AF0FC
S11314609A95660F771F881FDAF7880F96958795E8
S113147097F90895990F0008550FAA0BE0E8FEEFBD
S113148016161706E807F907C0F012161306E40744
S1131490F50798F0621B730B840B950B39F40A263D
S11314A061F0232B242B252B21F408950A2609F41B
S11314B0A140A6958FEF811D811D089597F99F671F
S11314C080E870E060E008959FEF80EC08950024C8
S11314D00A941616170618060906089500240A9495
S11314E012161306140605060895092E0394000C1B
S11314F011F4882352F0BB0F40F4BF2B11F460FFAA
S113150004C06F5F7F4F8F4F9F4F089557FD9058D2
S1131510440F551F59F05F3F71F04795880F97FBB3
S1131520991F61F09F3F79F087950895121613066D
S11315301406551FF2CF4695F1DF08C0161617069C
S11315401806991FF1CF86957105610508940895D1
S1131550E894BB2766277727CB0197F908950E9463
S11315603A0A08F48FEF08950E94C70A0C94750A8A
S11315700E94670A38F00E946E0A20F0952311F049
S11315800C945E0A0C94640A11240C94A90A0E9417
S1131590860A70F3959FC1F3950F50E0551F629F23
S11315A0F001729FBB27F00DB11D639FAA27F00DB8
S11315B0B11DAA1F649F6627B00DA11D661F829FDF
S11315C02227B00DA11D621F739FB00DA11D621FC4
S11315D0839FA00D611D221F749F3327A00D611DE1
S11315E0231F849F600D211D822F762F6A2F1124C3
S11315F09F5750409AF0F1F088234AF0EE0FFF1FF6
S1131600BB1F661F771F881F91505040A9F79E3F4C
S1131610510580F00C945E0A0C94A90A5F3FE4F330
S1131620983ED4F3869577956795B795F795E795A2
S11316309F5FC1F7FE2B880F911D9695879597F9AB
S113164008950E948E0AE8F09E37E8F09639B8F4BF
S11316509E3848F4672F782F8827985FF9CF8695AE
S11316607795679593959539D0F3B62FB1706B0F35
S1131670711D811D20F487957795679593950C943A
S1131680450B0C94600B0C94A90A882371F47723FE
S113169021F09850872B762F07C0662311F49927E1
S11316A00DC09051862B70E060E02AF09A95660F89
S11316B0771F881FDAF7880F9695879597F908950D
S11316C09F3F31F0915020F4879577956795B795B2
S11316D0880F911D9695879597F908952F923F92BB
S11316E04F925F926F927F928F929F92AF92BF922E
S11316F0CF92DF92EF92FF920F931F93CF93DF93DA
S1131700CDB7DEB76097CDBFDEBF7C011B016A0198
S1131710FC0116821782838181FF44C39E012F5FDF
S11317203F4F3901F7019381F10193FD859193FFB7
S113173081911F01882309F431C3853239F493FD63
S1131740859193FF81911F01853239F4B70190E0AF
S11317500E94181056016501E5CF10E0512C912C20
S1131760FFE1F915D8F08B3279F038F4803279F052
S11317708332A1F4F92DF0612EC08D3261F08033F3
S113178069F4292D21602DC0392D3260932E892DC5
S11317908460982E2AC0E92DE86015C097FC2DC0FE
S11317A020ED280F2A3088F496FE06C03AE0139FF5
S11317B0200D1124122F19C08AE0589E200D1124E7
S11317C0522EE92DE0629E2E10C08E3231F496FC2A
S11317D0E5C2F92DF0649F2E08C08C3621F4292D22
S11317E02068922E02C0883641F4F10193FD859160
S11317F093FF81911F018111B3CF9BEB980F93301D
S113180020F4992D9061805E07C09BE9980F933076
S113181008F066C1992D9F7E96FF16E09F73992E5E
S1131820853619F49064992E08C0863621F4392F30
S11318303068932E02C01111115097FE07C01C335B
S113184050F444244394410E27E00BC0183038F080
S113185027E017E005C027E09CE3492E02C0212FB2
S1131860412C560184E0A80EB11CF60160817181FF
S113187082819381042DA3010E94210F6C01F981BF
S1131880FC87F0FF02C0F3FF06C091FC06C092FE85
S113189006C000E205C00DE203C00BE201C000E097
S11318A08C858C7019F001115AC29BC297FE10C02E
S11318B04C0CFC85F4FF04C08A81813309F44A94FA
S11318C0141474F528E0241578F588E0482E2CC00B
S11318D096FC2AC0812F90E08C159D059CF03CEF6E
S11318E0C3163FEFD30674F0892D8068982E0AC082
S11318F0E2E0F0E0EC0FFD1FE10FF11D8081803389
S113190019F411501111F4CF97FE0EC044244394DE
S1131910410E812F90E0C816D9062CF41C1904C07E
S11319204424439401C010E097FE06C01C141D0417
S113193034F4C601019605C085E090E002C081E060
S113194090E001110196112331F0212F30E02F5F37
S11319503F4F820F931F252D30E08217930714F415
S1131960581A01C0512C892D897049F4552039F039
S1131970B70180E290E00E9418105A94F7CF002338
S113198029F0B701802F90E00E94181093FC09C041
S1131990552039F0B70180E390E00E9418105A9462
S11319A0F7CF97FE4CC04601D7FE02C0812C912C84
S11319B0C60188199909F301E80FF91FED87FE871D
S11319C09601241931092F87388B012F10E01195C6
S11319D0019511093FEF8316930629F4B7018EE2AE
S11319E090E00E941810C814D9044CF08F8598898F
S11319F08815990524F4ED85FE85818101C080E375
S1131A00F1E08F1A91082D853E852F5F3F4F2D877A
S1131A103E87801691062CF0B70190E00E941810C2
S1131A20D9CFC814D90441F49A81963320F495335C
S1131A3019F43C8534FF81E3B70190E04EC08A81FC
S1131A40813319F09C859F7E9C87B70190E00E94AA
S1131A501810111105C094FC18C085E690E017C059
S1131A60B7018EE290E00E9418101E5F82E001E050
S1131A70080FF301E80FF11D8081B70190E00E9487
S1131A801810802F0113F3CFE6CF85E490E0B7015F
S1131A900E941810D7FC06C0C114D10441F4EC858F
S1131AA0E4FF05C0D194C194D1088DE201C08BE25A
S1131AB0B70190E00E94181080E32AE0C216D10416
S1131AC02CF08F5FFAE0CF1AD108F7CFB70190E07E
S1131AD00E941810B701C601C0960E94181054C184
S1131AE0833631F0833779F0833509F056C020C04E
S1131AF0560132E0A30EB11CF6018081898301E016
S1131B0010E0630112C05601F2E0AF0EB11CF60101
S1131B10C080D18096FE03C0612F70E002C06FEFD9
S1131B207FEFC6010E940D108C01F92DFF7714C0C0
S1131B30560122E0A20EB11CF601C080D18096FEAF
S1131B4003C0612F70E002C06FEF7FEFC6010E94F7
S1131B50F90F8C01F92DF0689F2EF3FD1AC0852D25
S1131B6090E008171907A8F4B70180E290E00E94FA
S1131B7018105A94F4CFF60197FC859197FE819141
S1131B806F01B70190E00E94181051105A9401504F
S1131B9011090115110579F7F7C0843611F089365A
S1131BA061F5560197FE09C024E0A20EB11CF601AE
S1131BB060817181828193810AC0F2E0AF0EB11C11
S1131BC0F60160817181072E000C880B990BF92DA9
S1131BD0FF769F2E97FF09C090958095709561952B
S1131BE07F4F8F4F9F4FF0689F2E2AE030E0A30174
S1131BF00E949810C82EC6183FC0092D853721F4BD
S1131C000F7E2AE030E01DC0097F8F3691F018F472
S1131C10883559F0C3C0803719F0883711F0BEC039
S1131C20006104FF09C0046007C094FE08C0066098
S1131C3006C028E030E005C020E130E002C020E129
S1131C4032E0560107FF09C084E0A80EB11CF6017A
S1131C50608171818281938108C0F2E0AF0EB11C72
S1131C60F6016081718180E090E0A3010E949810E8
S1131C70C82EC6180F77902E96FE0BC0092D0E7F26
S1131C80C11650F494FE0AC092FC08C0092D0E7EC1
S1131C9005C0DC2C092D03C0DC2C01C0D12E04FFAF
S1131CA00DC0FE01EC0DF11D8081803311F4097E1D
S1131CB009C002FF06C0D394D39404C0802F867851
S1131CC009F0D39403FD11C000FF06C01C2DD514E8
S1131CD080F4150D1D190DC0D51458F4B70180E218
S1131CE090E00E941810D394F7CFD51410F45D1827
S1131CF001C0512C04FF10C0B70180E390E00E94A2
S1131D00181002FF17C001FD03C088E790E002C06D
S1131D1088E590E0B7010CC0802F867859F001FF68
S1131D2002C08BE201C080E207FD8DE2B70190E0C2
S1131D300E941810C11638F4B70180E390E00E94A5
S1131D4018101150F7CFCA94F301EC0DF11D8081E6
S1131D50B70190E00E941810C110F5CF15C0F4E04F
S1131D60F51560F584E0581A93FE1FC0011127C0D1
S1131D702C8523FF2AC004E012E0392D3071932E04
S1131D80F8018491811124C0552009F4E4CCB701F1
S1131D9080E290E00E9418105A94F6CFF7018681F1
S1131DA0978126C08FEF9FEF23C0B70180E290E0B8
S1131DB00E9418105A945110F8CFD8CF512CB70163
S1131DC0802F90E00E941810D3CF08E012E0D5CF06
S1131DD091108052B70190E00E9418100F5F1F4FBE
S1131DE0CFCF23E0251510F483E0BDCF512CC0CF15
S1131DF06096CDBFDEBFDF91CF911F910F91FF9011
S1131E00EF90DF90CF90BF90AF909F908F907F9096
S1131E106F905F904F903F902F900895A29FB001D4
S1131E20B39FC001A39F700D811D1124911DB29F0A
S1131E30700D811D1124911D0895662777270C9438
S1131E40F610283008F027E03327DA01990F311D06
S1131E5087FD916000966105710539F432602E5F4B
S1131E603D9330E32A95E1F708959F3F30F08038A1
S1131E707105610509F03C5F3C5F3D93913008F0CA
S1131E808068911DDF93CF931F930F93FF92EF927E
S1131E90192F987F9695E92F96959695E90FFF2728
S1131EA0EA59FD4F99273327EE24FF24A701E701C0
S1131EB005900894079428F4360FE71EF81E491F6E
S1131EC0511D660F771F881F991F0694A1F705906F
S1131ED0079428F4E70EF81E491F561FC11D770FFB
S1131EE0881F991F661F0694A1F70590079428F48C
S1131EF0F80E491F561FC71FD11D880F991F661F53
S1131F00771F0694A1F70590079420F4490F561FF4
S1131F10C71FD81F990F661F771F881F0694A9F73C
S1131F2084911095177041F0D695C79557954795AC
S1131F30F794E7941A95C1F7ECE0F2E068941590F1
S1131F40159135916591959105907FE27395E1180E
S1131F50F10A430B560BC90BD009C0F7E10CF11E73
S1131F60431F561FC91FD01D7EF4703311F48A9588
S1131F70E6CFE894015030F0080F0AF40027021766
S1131F8008F4202F2395022F7A3328F079E37D93E8
S1131F902A95E9F710C07D932A9589F606949795BA
S1131FA06795379517951794E118F10A430B560B6B
S1131FB0C90BD00998F023957E9173957A3308F074
S1131FC070E37C932013B8F77E9170617D9330F0B9
S1131FD0839571E37D9370E32A95E1F71124EF90E3
S1131FE0FF900F911F91CF91DF91992787FD9095D5
S1131FF00895FC010590615070400110D8F7809558
S113200090958E0F9F1F0895FB01DC0102C0019083
S11320100D9241505040D8F70895FC016150704032
S113202001900110D8F7809590958E0F9F1F089509
S11320300F931F93CF93DF93FB01238121FD03C0F3
S11320408FEF9FEF2CC022FF16C046815781248159
S113205035814217530744F4A081B1819D012F5F5C
S11320603F4F208331838C93268137812F5F3F4FED
S11320702683378314C08B01EC01FB010084F185B6
S1132080E02D1995892BE1F6D80116968D919C9136
S11320901797019616968D939C931797CE01DF910F
S11320A0CF911F910F910895CF93DF93CDB7DEB7F2
S11320B0AE014A5F5F4FFA0161917191AF01809166
S11320C0D7219091D8210E946E0BDF91CF91089572
S11320D00F931F93CF93DF93E091D721F091D821F1
S11320E0238121FF1BC08C01D0E0C0E0F801819165
S11320F08F016091D7217091D821DB011896ED9161
S1132100FC911997882331F01995892B79F3DFEF26
S1132110CFEFECCF8AE01995892B19F08FEF9FEF61
S113212002C08D2F9C2FDF91CF911F910F910895A5
S1132130FA01AA27283051F1203181F1E8946F93F4
S11321406E7F6E5F7F4F8F4F9F4FAF4FB1E03ED09A
S1132150B4E03CD0670F781F891F9A1FA11D680F38
S1132160791F8A1F911DA11D6A0F711D811D911D6B
S1132170A11D20D009F468943F912AE0269F1124E0
S11321803019305D3193DEF6CF010895462F477044
S1132190405D4193B3E00FD0C9F7F6CF462F4F709F
S11321A0405D4A3318F0495D31FD4052419302D0FD
S11321B0A9F7EACFB4E0A6959795879577956795A3
S11321C0BA95C9F700976105710508959B01AC01A3
S11321D00A2E06945795479537952795BA95C9F7CA
S11321E0620F731F841F951FA01D08958F929F92E5
S11321F0AF92BF92CF92DF92EF92FF920F931F9311
S1132200CF93DF93EC016B016115710519F0FB01AC
S1132210808391837E01FFEFEF1AFF0A0881802FEC
S113222090E00E945212892B11F0E701F3CF0D3296
S113223039F47E0182E0E80EF11C098111E008C046
S11322400B3229F47E0192E0E90EF11C098110E0C1
S1132250E701219743E050E06EE073E0CE010E9475
S11322605B12892BC1F4239645E050E069E073E0EA
S1132270CE010E945B12892B09F42596C114D10466
S113228019F0F601C083D1831111F6C060E070E04B
S113229080E89FE7FAC043E050E066E073E0CE01D7
S11322A00E945B12892B59F4C114D10409F4E9C0CA
S11322B0F2E0EF0EF11CF601E082F182E2C020E0D0
S11322C030E0A901C0E0D0E0F70160EDA62EA00E39
S11322D089E08A1530F1912F9260B92E812F887090
S11322E012FF04C0811124C0219622C081112197BC
S11322F0A5E0B0E00E947612DC01CB01880F991FA3
S1132300AA1FBB1F9C01AD012A0D311D411D511D8A
S1132310283989E93807480789E1580748F01660E1
S113232006C09EEFA9120AC013FD40C01860B12E6A
S11323308FEFE81AF80A00811B2DC6CF802F8F7DFE
S11323408534A1F580818D3211F4106106C08B3281
S113235021F0319661E070E004C08181329662E040
S113236070E080538A3018F0E61BF70B1FC060E062
S113237070E060389CE079075CF4DB01AA0FBB1FB6
S1132380AA0FBB1F6A0F7B1F660F771F680F711D93
S11323903196DF0111978C9180538A3050F314FFEA
S11323A003C0719561957109C60FD71F11FF08C04D
S11323B0C114D10429F0CF010197F60180839183E0
S11323C0CA01B9010E94FD09212F2370233019F09D
S11323D04B015C0106C04B015C01B7FAB094B7F83D
S11323E0B09420E030E0A901C501B4010E9457096E
S11323F0882309F43EC0D7FF06C0D195C195D10901
S113240005E213E002C00DE313E06801F8E1CF1A1E
S1132410D10890E2E92EF12CCE15DF0574F0F80115
S11324202591359145915491C501B4010E94B40A96
S11324304B015C01CE19DF09EFCF04501109F5946B
S1132440E7940C151D0541F78A2D880F8B2D881FE5
S11324508F3F49F020E030E0A901C501B4010E949A
S11324605709811106C082E290E08093DB219093AA
S1132470DC21C501B40109C060E070E080E89FEF91
S113248004C060E070E080EC9FE7DF91CF911F9182
S11324900F91FF90EF90DF90CF90BF90AF909F90FF
S11324A08F90089591110C947312803219F0895011
S11324B08550C8F70895FB01DC014150504088F075
S11324C08D9181341CF08B350CF4805E6591613400
S11324D01CF06B350CF4605E861B611171F3990B73
S11324E00895881BFCCF9927882708950E940E0F12
S11324F0A59F900DB49F900DA49F800D911D112454
S10925000895F894FFCFDA
S113250647524432330F0520010000000300000047
S1132516005907210700005475726E206F6E204C17
S11325266967687400436F756E74696E67207469B1
S11325366C6C2053656E736F722054696D653D3DF6
S11325463132005363616E6E696E67206375727211
S1132556656E7420736974756174696F6E004C6975
S1132566676874205374617973206F6E004C6967D1
S113257668742773207475726E6564206F666600CE
S1132586566F6C746167653A2025352E336C662068
S113259656200A001B5B481B5B324A1B5B334A000E
S11325A625352E336C662052656D6F746520566131
S11325B66C75650A002564204F7574204C65766534
S11325C66C0A000001020304051112131415160AFD
S10925D60B0C0D0E0F00BA
S9030000FC
