S00E00004E4F444520312E737265639F
S11300000C9483010C94A4010C94A4010C94A401F9
S11300100C94A4010C94A4010C94A4010C94A401C8
S11300200C94A4010C94A4010C94A4010C94A401B8
S11300300C94A4010C94A4010C94A4010C94A401A8
S11300400C94A4010C94A4010C94A4010C94A40198
S11300500C94A4010C94A4010C94A4010C94A40188
S11300600C94A4010C94A4010C94A4010C94A40178
S11300700C94A4010C94A4010C94A4010C94A40168
S11300800C94A4010C94A4010C94A4010C94A40158
S11300900C94A4010C94A4010C94A4010C94A40148
S11300A00C94A4010C94A4010C94A4010C94A40138
S11300B00C94A4010C94A4010C94A4010C94A40128
S11300C00C94A4010C94A4010C94A4010C94A40118
S11300D00C94A4010C94A4010C94A4010C94A40108
S11300E00C94A4010C94A4010C94A4010C94A401F8
S11300F00C94A4010C94A4010C94A4010C94A401E8
S11301000C94A4010C94A4010C94A4010C94A401D7
S11301100C94A4010C94A4010C94A4010C94A401C7
S11301200C94A4010C94A4010C94A4010C94A401B7
S11301300C94A4010C94A4010C94A4010C94A401A7
S11301400C94A4010C94A4010C94A4010C94A40197
S11301500C94A4010C94A4010C94A4010C94A40187
S11301600C94A4010C94A4010C94A4010C94A40177
S11301700C94A4010C94A4010C94A4010C94A40167
S11301800C94A4010C94A4010C94A4010C94A40157
S11301900C94A4010C94A4010C94A4010C94A40147
S11301A00C94CA010C94A4010C94A4010C94A40111
S11301B00C94A4010C94A4010C94A4010C94A40127
S11301C00C94A4010C94A4010C94A4010C94A40117
S11301D00C94A4010C94A4010C94A4010C9468063E
S11301E00C9490060C94A4010C94A4010C94A40106
S11301F00C94A4010C94A4010C94A4010C94F70491
S11302000C942F056E616E00696E660000407A10D2
S1130210F35A00A0724E18090010A5D4E80000E8B3
S11302207648170000E40B54020000CA9A3B000011
S113023000E1F505000080969800000040420F00A0
S11302400000A08601000000102700000000E80361
S1130250000000006400000000000A00000000002C
S11302600100000000002C76D888DC674F0823DFEB
S1130270C1DFAE59E1B1B796E5E3E453C63AE651BE
S1130280997696E8E6C28426EB898C9B62ED407CE5
S11302906FFCEFBC9C9F40F2BAA56FA5F490055A81
S11302A02AF75C936B6CF9676DC11BFCE0E40D47A6
S11302B0FEF520E6B500D0ED902E030094357705C9
S11302C00080841E080000204E0A000000C80C3381
S11302D03333330F986E12831141EF8D2114893B10
S11302E0E65516CFFEE6DB18D1844B381BF77C1D90
S11302F0901DA4BBE424203284725E228100C9F1E3
S113030024ECA1E53D2711241FBECFEFCDBFDFE5CF
S1130310DEBF00E00CBF10E2A0E0B0E2E6E0FDE1E9
S113032000E00BBF02C007900D92A833B107D9F7C4
S113033021E2A8E3B0E201C01D92A433B207E1F7C1
S11303400E9450020C94810E0C940000E0E5F0E051
S11303508BEC82838081886080838091510083FF4D
S1130360FCCFE0E5F0E082EC8583808180618083CE
S11303708091510084FFFCCF88ED84BF84E080939A
S11303804000E0E5F0E080818E7F808380818D7F76
S1130390808308951F920F920FB60F9211240BB60B
S11303A00F921F932F933F934F935F936F937F937A
S11303B08F939F93AF93BF93EF93FF93CF93DF9369
S11303C000D0CDB7DEB7AE014D5F5F4FBE016E5FAB
S11303D07F4FCE0101960E9487038B81882369F0A9
S11303E00E942004182F682F8DE091E20E942D03B3
S11303F0E12FF0E0E35FFE4D108281E090E0809316
S11304003820909339202396CDBFDEBFDF91CF9162
S1130410FF91EF91BF91AF919F918F917F916F91D8
S11304205F914F913F912F911F910F900BBE0F90B1
S11304300FBE0F901F9018950E94B0040E9487046D
S11304406FE080E50E947D0484E00E944A0480E21B
S11304500E9458048CE00E946F048DE70E943204CD
S113046081E00E943E040E94FD030E9482040E94D7
S113047034030E944303E0EAF6E0828580648287C5
S113048082E0868B81858C7F8160818781E0858392
S113049060E070E280E00E94A5030E945203089588
S11304A00E94A6010E941C0260E078E488EE91E0BC
S11304B00E942406E0EAF0E082818160828381E088
S11304C080934106789486E190E29F938F930E94F3
S11304D00F0E0F900F908091382090913920019742
S11304E0A9F48DE091E20E94B60CEC01DF93CF9366
S11304F082E290E29F938F930E940F0E1092382015
S1130500109239200F900F900F900F90C130D105A9
S113051021F481E080934506DECF81E08093460696
S1130520DACF1F93CF93DF93C0EAD6E010E21E83A5
S11305308F710E94CA048FEF0E94CA041D83DF9149
S1130540CF911F910895DF92EF92FF920F931F9323
S1130550CF93DF938B01C42F90E29093A6068F7103
S113056080620E94CA04D82E0AC078018FEFE81A6C
S1130570F80AF80180810E94CA04CD2F8701DFEFB9
S1130580DC0FC111F2CF80E28093A5068D2DDF919F
S1130590CF911F910F91FF90EF90DF900895FF92FC
S11305A00F931F93CF93DF93F62EC0EAD6E010E2A9
S11305B01E838F7180620E94CA04082F8F2D0E94AF
S11305C0CA041D83802FDF91CF911F910F91FF905B
S11305D00895CF92DF92EF92FF920F931F93CF93E0
S11305E0DF938C01D62FC0910620C61708F4DC2FA8
S11305F080913F20811102C0CD1B01C0C0E080E288
S11306008093A60681E60E94CA04E82E0BC0680106
S11306108FEFC81AD80A8FEF0E94CA04F8018083AA
S1130620DF2D8601FF24FA94FD0ED111F0CF04C012
S11306308FEF0E94CA04CD2FDFEFDC0FC111F8CF7A
S113064080E28093A5068E2DDF91CF911F910F91AB
S1130650FF90EF90DF90CF9008950E94E90287E128
S11306600E949102817008951F93CF93DF93C0EA93
S1130670D6E010E21E8382EE0E94CA041D83DF913D
S1130680CF911F9108951F93CF93DF93C0EAD6E0D3
S113069010E21E8381EE0E94CA041D83DF91CF9174
S11306A01F91089580E00E94910281FD0CC0682F83
S11306B0636080E00E94CF028FE79EE30197F1F729
S11306C000C0000005C0682F616080E00E94CF0276
S11306D08FE094E00197F1F700C0000060E787E045
S11306E00E94CF02409105206AE370E28AE00E94F2
S11306F0A3020E9434030E94430380E88093A5066A
S11307008FE094E00197F1F700C000000895EF92A4
S1130710FF920F931F93CF93DF937C018B01EA0128
S113072060E787E00E94CF02982F9072F7019083D0
S1130730982F9071F801908380748883DF91CF9112
S11307401F910F91FF90EF9008950F931F93CF93F4
S1130750DF93C82F8B01811107C04091052050E021
S11307608AE390E20E94B70DC73080F5C23058F496
S1130770EC2FF0E0EE5CFF4D40910520B801808144
S11307800E94A30209C0EC2FF0E0EE5CFF4D41E0B3
S1130790B80180810E94A302D0E0FE01E45DFF4D18
S11307A06091062080810E94CF0282E00E94910223
S11307B0CA5DDF4D61E070E0088002C0660F771FFC
S11307C00A94E2F7682B82E00E94CF02DF91CF9176
S11307D01F910F9108951F93CF93DF93C0EAD6E042
S11307E010E21E8380E50E94CA0483E70E94CA04C3
S11307F01D83DF91CF911F9108958DE10E94910295
S1130800682F64608DE10E94CF028DE10E94910205
S113081081110AC00E94EB038DE10E949102682FAE
S113082064608DE10E94CF028CE10E949102682FE6
S11308306F638CE10E94CF0281E080933F20089592
S11308401F93CF93DF93C0EAD6E010E21E8380E6C5
S11308500E94CA048FEF0E94CA041D83DF91CF91C6
S11308601F91089588232CF0682F85E00E94CF0201
S113087008956FE785E00E94CF020895882329F048
S11308806FE381E00E94CF02089560E081E00E945E
S1130890CF020895CF93C82F86E00E949102897FEA
S11308A0C670682F6C2B86E00E94CF02CF9108950A
S11308B0CF93C82F86E00E949102877D9C2F987267
S11308C0682F692B86E00E94CF0286E00E94910285
S11308D0C81302C081E001C080E0CF910895CF9396
S11308E0C82F80E00E949102837FCC70682F6C2B0C
S11308F080E00E94CF02CF910895682B84E00E948B
S1130900CF02089560E787E00E94CF0208958FE345
S11309109CE90197F1F700C000006FE080E50E94B8
S11309207D0486E00E944A0480E20E9458048823E1
S113093019F081E08093072080E00E9458048CE045
S11309400E946F0460E08CE10E94CF028CE40E945C
S113095032040E9482040E9434030E9443030895D7
S1130960E0E4F6E088E0818384E0828382E08183AE
S1130970E0EAF6E080E2818380E4828380E8818398
S1130980E0EAF8E088E1848380EC8583178281E0E3
S1130990868308958093A0088091A10886FFFCCFE8
S11309A0E0EAF8E081818064818380810895809108
S11309B0A5209091A420891710F0891B0895891B04
S11309C08C590895CF93C091A4200E94D704882302
S11309D0E1F3EC2FF0E0E05CFF4D808191E09C0FAF
S11309E0943608F090E09093A420CF9108950E944B
S11309F0E20490E0089520910B2191E0920F809100
S1130A000A21943610F09DE9920F891710F0891B82
S1130A100895891B8C590895CF93C82F03C081E290
S1130A208093A30B0E94FB048823C9F380910B21BC
S1130A30E82FF0E0EA55FF4DC0838F5F843608F05D
S1130A4080E0E0EAF0E09281292F2E7F22838093D8
S1130A500B2181E28093A30B9283CF910895CF93CE
S1130A60DF93D82FCFEF03C0CC2329F0C1500E94CD
S1130A70FB048823C9F3CC2359F0DA3019F48DE050
S1130A800E940C058D2F0E940C0580E090E002C0AE
S1130A9081E090E0DF91CF9108954F925F926F9241
S1130AA07F928F929F92AF92BF92CF92DF92EF92FA
S1130AB0FF920F931F93CF93DF9329013A012E2DB9
S1130AC02170C0E1D0E002C0D595C7952A95E2F720
S1130AD00023F4F50E94CE076B017C01C301B2012F
S1130AE00E94CE074B015C01DD27BE01DD0F880BA0
S1130AF0990B0E94D007A50194010E945C089B01F8
S1130B00AC01C701B6010E942D0720E030E040E8A7
S1130B105FE30E94C0066B017C01112701950CF470
S1130B20109561E070E002C0660F771F0A95E2F746
S1130B30072E000C880B990B0E94D007A701960181
S1130B400E945C080E94C9080E949F07CB013CC018
S1130B500E94CE074B015C01C301B2010E94CE0783
S1130B606B017C01BE017727072E000C880B990BC3
S1130B700E94D007A70196010E945C089B01AC016A
S1130B80C501B4010E942D076B017C0161E070E096
S1130B9002C0660F771F0A95E2F7072E000C880B38
S1130BA0990B0E94D0079B01AC01C701B6010E94BA
S1130BB02D0720E030E040E85FE30E94C0060E9479
S1130BC0C9080E949F07CB01DF91CF911F910F911C
S1130BD0FF90EF90DF90CF90BF90AF909F908F9059
S1130BE07F906F905F904F9008954F925F926F92B5
S1130BF07F928F929F92AF92BF92EF920F93CF9377
S1130C00DF932B013C0149015A01D02FC9EF0CC0DD
S1130C10ED2E0C2FA5019401C301B2010E944D05D4
S1130C208115904118F0CF5FC83094F38C2FDF9179
S1130C30CF910F91EF90BF90AF909F908F907F9046
S1130C406F905F904F9008958F929F92AF92BF9252
S1130C50EF920F93CF934B015C0100E020E032EC64
S1130C6041E050E00E94F505C82FE12C082F20E058
S1130C7032EC41E050E0C501B4010E944D05E0EAC8
S1130C80F6E028E1228B38E03583318334E0328387
S1130C90E0EAFBE08683C295C07F9F70C92BC783BF
S1130CA0248380E28383E0EAF0E0828183608283AC
S1130CB0EEE2F1E288E090E2808391838283938381
S1130CC0CF910F91EF90BF90AF909F908F90089528
S1130CD01F920F920FB60F9211240BB60F928F939F
S1130CE09F93EF93FF938091A520E82FF0E09091DC
S1130CF0A00BE05CFF4D90838F5F843608F080E0AA
S1130D009091A42089138093A520FF91EF919F9146
S1130D108F910F900BBE0F900FBE0F901F901895E0
S1130D201F920F920FB60F9211240BB60F922F93AE
S1130D308F939F93EF93FF9380910A2190910B21BE
S1130D40891759F0E82FF0E0EA55FF4D20812093F0
S1130D50A00B8F5F843608F080E0891303C090E213
S1130D609093A30B80930A21FF91EF919F918F9110
S1130D702F910F900BBE0F900FBE0F901F901895E0
S1130D805058BB27AA270E94D8060C9422080E9418
S1130D90140838F00E941B0820F039F49F3F19F41E
S1130DA026F40C9411080EF4E095E7FB0C940B0860
S1130DB0E92F0E94330858F3BA17620773078407B0
S1130DC0950720F079F4A6F50C9455080EF4E095F7
S1130DD00B2EBA2FA02D0B01B90190010C01CA01F1
S1130DE0A0011124FF27591B99F0593F50F4503E9C
S1130DF068F11A16F040A22F232F342F4427585F8E
S1130E00F3CF469537952795A795F0405395C9F7A5
S1130E107EF41F16BA0B620B730B840BBAF091505D
S1130E20A1F0FF0FBB1F661F771F881FC2F70EC0FC
S1130E30BA0F621F731F841F48F4879577956795CF
S1130E40B795F7959E3F08F0B0CF9395880F08F0BB
S1130E509927EE0F9795879508950E9441070C9462
S1130E6022080E941B0858F00E94140840F029F43C
S1130E705F3F29F00C940B0851110C9456080C9404
S1130E8011080E94330868F39923B1F3552391F3B1
S1130E90951B550BBB27AA2762177307840738F0E5
S1130EA09F5F5F4F220F331F441FAA1FA9F335D042
S1130EB00E2E3AF0E0E832D091505040E695001CF6
S1130EC0CAF72BD0FE2F29D0660F771F881FBB1FB0
S1130ED0261737074807AB07B0E809F0BB0B802D8E
S1130EE0BF01FF2793585F4F3AF09E3F510578F0BA
S1130EF00C940B080C9456085F3FE4F3983ED4F32B
S1130F00869577956795B795F7959F5FC9F7880F8D
S1130F10911D9695879597F90895E1E0660F771FDF
S1130F20881FBB1F621773078407BA0720F0621B70
S1130F30730B840BBA0BEE1F88F7E09508950E949B
S1130F403B0888F09F5798F0B92F9927B751B0F014
S1130F50E1F0660F771F881F991F1AF0BA95C9F739
S1130F6014C0B13091F00E945508B1E008950C947A
S1130F705508672F782F8827B85F39F0B93FCCF32D
S1130F80869577956795B395D9F73EF490958095B6
S1130F90709561957F4F8F4F9F4F0895E89409C0D6
S1130FA097FB3EF490958095709561957F4F8F4F98
S1130FB09F4F9923A9F0F92F96E9BB279395F695AE
S1130FC0879577956795B795F111F8CFFAF4BB0F2C
S1130FD011F460FF1BC06F5F7F4F8F4F9F4F16C090
S1130FE0882311F096E911C0772321F09EE8872F1A
S1130FF0762F05C0662371F096E8862F70E060E0D6
S11310002AF09A95660F771F881FDAF7880F96954E
S1131010879597F9089597F99F6780E870E060E0F5
S113102008959FEF80EC089500240A94161617067D
S113103018060906089500240A94121613061406C5
S113104005060895092E0394000C11F4882352F028
S1131050BB0F40F4BF2B11F460FF04C06F5F7F4FE0
S11310608F4F9F4F089557FD9058440F551F59F0C7
S11310705F3F71F04795880F97FB991F61F09F3F81
S113108079F087950895121613061406551FF2CFAA
S11310904695F1DF08C0161617061806991FF1CFFA
S11310A086957105610508940895E894BB27662721
S11310B07727CB0197F908950E946F080C942208B2
S11310C00E94140838F00E941B0820F0952311F0A8
S11310D00C940B080C94110811240C9456080E94CB
S11310E0330870F3959FC1F3950F50E0551F629F2D
S11310F0F001729FBB27F00DB11D639FAA27F00D6D
S1131100B11DAA1F649F6627B00DA11D661F829F93
S11311102227B00DA11D621F739FB00DA11D621F78
S1131120839FA00D611D221F749F3327A00D611D95
S1131130231F849F600D211D822F762F6A2F112477
S11311409F5750409AF0F1F088234AF0EE0FFF1FAA
S1131150BB1F661F771F881F91505040A9F79E3F01
S1131160510580F00C940B080C9456085F3FE4F38F
S1131170983ED4F3869577956795B795F795E79557
S11311809F5FC1F7FE2B880F911D9695879597F960
S113119008950E943B08E8F09E37E8F09639B8F4C9
S11311A09E3848F4672F782F8827985FF9CF869563
S11311B07795679593959539D0F3B62FB1706B0FEA
S11311C0711D811D20F487957795679593950C94EF
S11311D0ED080C9408090C945608882371F47723BD
S11311E021F09850872B762F07C0662311F4992796
S11311F00DC09051862B70E060E02AF09A95660F3E
S1131200771F881FDAF7880F9695879597F90895C1
S11312109F3F31F0915020F4879577956795B79566
S1131220880F911D9695879597F908952F923F926F
S11312304F925F926F927F928F929F92AF92BF92E2
S1131240CF92DF92EF92FF920F931F93CF93DF938E
S1131250CDB7DEB76097CDBFDEBF7C011B016A014D
S1131260FC0116821782838181FF44C39E012F5F94
S11312703F4F3901F7019381F10193FD859193FF6C
S113128081911F01882309F431C3853239F493FD18
S1131290859193FF81911F01853239F4B70190E064
S11312A00E94D30D56016501E5CF10E0512C912C1D
S11312B0FFE1F915D8F08B3279F038F4803279F007
S11312C08332A1F4F92DF0612EC08D3261F08033A8
S11312D069F4292D21602DC0392D3260932E892D7A
S11312E08460982E2AC0E92DE86015C097FC2DC0B3
S11312F020ED280F2A3088F496FE06C03AE0139FAA
S1131300200D1124122F19C08AE0589E200D11249B
S1131310522EE92DE0629E2E10C08E3231F496FCDE
S1131320E5C2F92DF0649F2E08C08C3621F4292DD6
S11313302068922E02C0883641F4F10193FD859114
S113134093FF81911F018111B3CF9BEB980F9330D1
S113135020F4992D9061805E07C09BE9980F93302B
S113136008F066C1992D9F7E96FF16E09F73992E13
S1131370853619F49064992E08C0863621F4392FE5
S11313803068932E02C01111115097FE07C01C3310
S113139050F444244394410E27E00BC0183038F035
S11313A027E017E005C027E09CE3492E02C0212F67
S11313B0412C560184E0A80EB11CF60160817181B4
S11313C082819381042DA3010E94D40C6C01F981C4
S11313D0FC87F0FF02C0F3FF06C091FC06C092FE3A
S11313E006C000E205C00DE203C00BE201C000E04C
S11313F08C858C7019F001115AC29BC297FE10C0E3
S11314004C0CFC85F4FF04C08A81813309F44A94AE
S1131410141474F528E0241578F588E0482E2CC0BF
S113142096FC2AC0812F90E08C159D059CF03CEF22
S1131430C3163FEFD30674F0892D8068982E0AC036
S1131440E2E0F0E0EC0FFD1FE10FF11D808180333D
S113145019F411501111F4CF97FE0EC04424439493
S1131460410E812F90E0C816D9062CF41C1904C033
S11314704424439401C010E097FE06C01C141D04CC
S113148034F4C601019605C085E090E002C081E015
S113149090E001110196112331F0212F30E02F5FEC
S11314A03F4F820F931F252D30E08217930714F4CA
S11314B0581A01C0512C892D897049F4552039F0EE
S11314C0B70180E290E00E94D30D5A94F7CF002335
S11314D029F0B701802F90E00E94D30D93FC09C03E
S11314E0552039F0B70180E390E00E94D30D5A945F
S11314F0F7CF97FE4CC04601D7FE02C0812C912C39
S1131500C60188199909F301E80FF91FED87FE87D1
S11315109601241931092F87388B012F10E011957A
S1131520019511093FEF8316930629F4B7018EE262
S113153090E00E94D30DC814D9044CF08F8598898B
S11315408815990524F4ED85FE85818101C080E329
S1131550F1E08F1A91082D853E852F5F3F4F2D872F
S11315603E87801691062CF0B70190E00E94D30DBF
S1131570D9CFC814D90441F49A81963320F4953311
S113158019F43C8534FF81E3B70190E04EC08A81B1
S1131590813319F09C859F7E9C87B70190E00E945F
S11315A0D30D111105C094FC18C085E690E017C056
S11315B0B7018EE290E00E94D30D1E5F82E001E04D
S11315C0080FF301E80FF11D8081B70190E00E943C
S11315D0D30D802F0113F3CFE6CF85E490E0B7015C
S11315E00E94D30DD7FC06C0C114D10441F4EC858C
S11315F0E4FF05C0D194C194D1088DE201C08BE20F
S1131600B70190E00E94D30D80E32AE0C216D10412
S11316102CF08F5FFAE0CF1AD108F7CFB70190E032
S11316200E94D30DB701C601C0960E94D30D54C1C8
S1131630833631F0833779F0833509F056C020C002
S1131640560132E0A30EB11CF6018081898301E0CA
S113165010E0630112C05601F2E0AF0EB11CF601B6
S1131660C080D18096FE03C0612F70E002C06FEF8E
S11316707FEFC6010E94C00D8C01F92DFF7714C0C5
S1131680560122E0A20EB11CF601C080D18096FE64
S113169003C0612F70E002C06FEF7FEFC6010E94AC
S11316A0AC0D8C01F92DF0689F2EF3FD1AC0852D29
S11316B090E008171907A8F4B70180E290E00E94AF
S11316C0D30D5A94F4CFF60197FC859197FE81913E
S11316D06F01B70190E00E94D30D51105A9401504C
S11316E011090115110579F7F7C0843611F089360F
S11316F061F5560197FE09C024E0A20EB11CF60163
S113170060817181828193810AC0F2E0AF0EB11CC5
S1131710F60160817181072E000C880B990BF92D5D
S1131720FF769F2E97FF09C09095809570956195DF
S11317307F4F8F4F9F4FF0689F2E2AE030E0A30128
S11317400E94230EC82EC6183FC0092D853721F4E8
S11317500F7E2AE030E01DC0097F8F3691F018F427
S1131760883559F0C3C0803719F0883711F0BEC0EE
S1131770006104FF09C0046007C094FE08C006604D
S113178006C028E030E005C020E130E002C020E1DE
S113179032E0560107FF09C084E0A80EB11CF6012F
S11317A0608171818281938108C0F2E0AF0EB11C27
S11317B0F6016081718180E090E0A3010E94230E14
S11317C0C82EC6180F77902E96FE0BC0092D0E7FDB
S11317D0C11650F494FE0AC092FC08C0092D0E7E76
S11317E005C0DC2C092D03C0DC2C01C0D12E04FF64
S11317F00DC0FE01EC0DF11D8081803311F4097ED2
S113180009C002FF06C0D394D39404C0802F867805
S113181009F0D39403FD11C000FF06C01C2DD5149C
S113182080F4150D1D190DC0D51458F4B70180E2CC
S113183090E00E94D30DD394F7CFD51410F45D1823
S113184001C0512C04FF10C0B70180E390E00E9456
S1131850D30D02FF17C001FD03C088E790E002C06A
S113186088E590E0B7010CC0802F867859F001FF1D
S113187002C08BE201C080E207FD8DE2B70190E077
S11318800E94D30DC11638F4B70180E390E00E94A2
S1131890D30D1150F7CFCA94F301EC0DF11D8081E3
S11318A0B70190E00E94D30DC110F5CF15C0F4E04C
S11318B0F51560F584E0581A93FE1FC0011127C086
S11318C02C8523FF2AC004E012E0392D3071932EB9
S11318D0F8018491811124C0552009F4E4CCB701A6
S11318E080E290E00E94D30D5A94F6CFF7018681EE
S11318F0978126C08FEF9FEF23C0B70180E290E06D
S11319000E94D30D5A945110F8CFD8CF512CB7015F
S1131910802F90E00E94D30DD3CF08E012E0D5CF02
S113192091108052B70190E00E94D30D0F5F1F4FBA
S1131930CFCF23E0251510F483E0BDCF512CC0CFC9
S11319406096CDBFDEBFDF91CF911F910F91FF90C5
S1131950EF90DF90CF90BF90AF909F908F907F904B
S11319606F905F904F903F902F900895FC018827CF
S11319709927E89421912032E9F3293010F02E3090
S1131980C8F32B3241F02D3239F4689404C00E941C
S1131990CB0D820F911D219120532A30C0F31EF4E8
S11319A0909581959F4F0895283008F027E03327BC
S11319B0DA01990F311D87FD91600096610571056B
S11319C039F432602E5F3D9330E32A95E1F70895B0
S11319D09F3F30F080387105610509F03C5F3C5F42
S11319E03D93913008F08068911DDF93CF931F934E
S11319F00F93FF92EF92192F987F9695E92F969562
S1131A009695E90FFF27EA59FD4F99273327EE24CE
S1131A10FF24A701E70105900894079428F4360FE2
S1131A20E71EF81E491F511D660F771F881F991F57
S1131A300694A1F70590079428F4E70EF81E491FB1
S1131A40561FC11D770F881F991F661F0694A1F7A3
S1131A500590079428F4F80E491F561FC71FD11D7F
S1131A60880F991F661F771F0694A1F705900794A6
S1131A7020F4490F561FC71FD81F990F661F771FE1
S1131A80881F0694A9F784911095177041F0D69594
S1131A90C79557954795F794E7941A95C1F7ECE0E5
S1131AA0F2E06894159015913591659195910590A2
S1131AB07FE27395E118F10A430B560BC90BD00969
S1131AC0C0F7E10CF11E431F561FC91FD01D7EF441
S1131AD0703311F48A95E6CFE894015030F0080F82
S1131AE00AF40027021708F4202F2395022F7A33D3
S1131AF028F079E37D932A95E9F710C07D932A9520
S1131B0089F6069497956795379517951794E11874
S1131B10F10A430B560BC90BD00998F023957E911B
S1131B2073957A3308F070E37C932013B8F77E91B1
S1131B3070617D9330F0839571E37D9370E32A9512
S1131B40E1F71124EF90FF900F911F91CF91DF9156
S1131B50992787FD90950895FC0105906150704088
S1131B600110D8F7809590958E0F9F1F0895FB0163
S1131B70DC0102C001900D9241505040D8F7089505
S1131B80FC016150704001900110D8F78095909548
S1131B908E0F9F1F08957AE0979F902D879F802D29
S1131BA0910D112408950F931F93CF93DF93FB019D
S1131BB0238121FD03C08FEF9FEF2CC022FF16C0AD
S1131BC046815781248135814217530744F4A0810B
S1131BD0B1819D012F5F3F4F208331838C932681F8
S1131BE037812F5F3F4F2683378314C08B01EC016D
S1131BF0FB010084F185E02D1995892BE1F6D801CC
S1131C0016968D919C911797019616968D939C9399
S1131C101797CE01DF91CF911F910F910895CF9324
S1131C20DF93CDB7DEB7AE014A5F5F4FFA01619132
S1131C307191AF0180913021909131210E94160958
S1131C40DF91CF910895FA01AA27283051F120316C
S1131C5081F1E8946F936E7F6E5F7F4F8F4F9F4F3C
S1131C60AF4FB1E03ED0B4E03CD0670F781F891F7E
S1131C709A1FA11D680F791F8A1F911DA11D6A0F4C
S1131C80711D811D911DA11D20D009F468943F91FF
S1131C902AE0269F11243019305D3193DEF6CF01FE
S1131CA00895462F4770405D4193B3E00FD0C9F7C4
S1131CB0F6CF462F4F70405D4A3318F0495D31FD31
S1131CC04052419302D0A9F7EACFB4E0A695979584
S1131CD0879577956795BA95C9F70097610571055A
S1131CE008959B01AC010A2E0694579547953795A4
S1131CF02795BA95C9F7620F731F841F951FA01DFE
S1091D000895F894FFCFE2
S1131D06475244323305200100000003000000005E
S1131D162F05F70400001B5B481B5B324A1B5B3331
S1131D264A0025640A000001020304051112131473
S10B1D3615160A0B0C0D0E0F2B
S9030000FC
