S01800004763634170706C69636174696F6E34332E7372656324
S11300000C9402010C9423010C9423010C942301FD
S11300100C9423010C9423010C9423010C942301CC
S11300200C9423010C9423010C9423010C942301BC
S11300300C9423010C9423010C9423010C942301AC
S11300400C9423010C9423010C9423010C9423019C
S11300500C9423010C9423010C9423010C9423018C
S11300600C9423010C9423010C9423010C9423017C
S11300700C9423010C9423010C9423010C9423016C
S11300800C9423010C9423010C9423010C9423015C
S11300900C9423010C9423010C9423010C9423014C
S11300A00C9423010C9423010C9423010C9423013C
S11300B00C9423010C9423010C9423010C9423012C
S11300C00C9423010C9423010C9423010C9423011C
S11300D00C9423010C9423010C9423010C9423010C
S11300E00C9423010C9423010C9423010C942301FC
S11300F00C9423010C9423010C9423010C942301EC
S11301000C9423010C9423010C9423010C942301DB
S11301100C9423010C9423010C9423010C942301CB
S11301200C9423010C9423010C9423010C942301BB
S11301300C9423010C9423010C9423010C942301AB
S11301400C9423010C9423010C9423010C9423019B
S11301500C9423010C9423010C9423010C9423018B
S11301600C9423010C9423010C9423010C9423017B
S11301700C9423010C9423010C9423010C9423016B
S11301800C9423010C9423010C9423010C9423015B
S11301900C9423010C9423010C9423010C9423014B
S11301A00C9449010C9423010C9423010C94230115
S11301B00C9423010C9423010C9423010C9423012B
S11301C00C9423010C9423010C9423010C9423011B
S11301D00C9423010C9423010C9423010C94F70533
S11301E00C941F060C9423010C9423010C942301FA
S11301F00C9423010C9423010C9423010C94860485
S11302000C94BE0411241FBECFEFCDBFDFE5DEBFCB
S113021000E00CBF10E2A0E0B0E2ECE6F7E100E0A1
S11302200BBF02C007900D92A034B107D9F721E2A9
S1130230A0E4B0E201C01D92AC33B207E1F70E9422
S1130240D3010C94B40B0C940000E0E5F0E08BECCB
S113025082838081886080838091510083FFFCCFFA
S1130260E0E5F0E082EC8583808180618083809189
S1130270510084FFFCCF88ED84BF84E0809340006C
S1130280E0E5F0E080818E7F808380818D7F8083B4
S113029008951F920F920FB60F9211240BB60F926E
S11302A01F932F933F934F935F936F937F938F93FA
S11302B09F93AF93BF93EF93FF93CF93DF9300D0BC
S11302C0CDB7DEB7AE014D5F5F4FBE016E5F7F4FAE
S11302D0CE0101960E9416038B81882369F00E9447
S11302E0AF03182F682F85E191E20E94B302E12F3A
S11302F0F0E0EB5EFE4D108281E090E080934020C0
S1130300909341202396CDBFDEBFDF91CF91FF9123
S1130310EF91BF91AF919F918F917F916F915F9179
S11303204F913F912F911F910F900BBE0F900FBED5
S11303300F901F9018950E943F040E9416046FE0CE
S113034080E50E940C0484E00E94D90380E20E94AC
S1130350E7038CE00E94FE038DE70E94C10381E065
S11303600E94CD030E948C030E9411040E94BA02D1
S11303700E94C902E0EAF6E082858064828782E016
S1130380868B81858C7F8160818781E0858360E0B5
S113039070E280E00E9434030E94D8020E940D03A0
S11303A00E94D80208950E9425010E949B0160E0EA
S11303B078E488EE91E00E94B305E0EAF0E08281FF
S11303C08160828381E080934106789486E190E2A3
S11303D09F938F930E94BC080F900F9080914020B0
S11303E090914120019741F485E191E20E94D00867
S11303F0109240201092412045E050E062E270E209
S113040085E191E20E94AE08892B19F481E0809382
S1130410450645E050E068E270E285E191E20E9421
S1130420AE08892BD9F681E080934606D7CF1F9377
S1130430CF93DF93C0EAD6E010E21E838F710E944F
S113044059048FEF0E9459041D83DF91CF911F91AE
S11304500895DF92EF92FF920F931F93CF93DF9350
S11304608B01C42F90E29093A6068F7180620E9444
S11304705904D82E0AC078018FEFE81AF80AF80157
S113048080810E945904CD2F8701DFEFDC0FC11159
S1130490F2CF80E28093A5068D2DDF91CF911F913D
S11304A00F91FF90EF90DF900895FF920F931F93A9
S11304B0CF93DF93F62EC0EAD6E010E21E838F714D
S11304C080620E945904082F8F2D0E9459041D83B5
S11304D0802FDF91CF911F910F91FF900895CF92BC
S11304E0DF92EF92FF920F931F93CF93DF938C01D0
S11304F0D62FC0910620C61708F4DC2F8091472020
S1130500811102C0CD1B01C0C0E080E28093A60629
S113051081E60E945904E82E0BC068018FEFC81AC7
S1130520D80A8FEF0E945904F8018083DF2D8601D9
S1130530FF24FA94FD0ED111F0CF04C08FEF0E9476
S11305405904CD2FDFEFDC0FC111F8CF80E2809387
S1130550A5068E2DDF91CF911F910F91FF90EF9003
S1130560DF90CF9008950E946F0287E10E941702E6
S1130570817008951F93CF93DF93C0EAD6E010E211
S11305801E8382EE0E9459041D83DF91CF911F9137
S113059008951F93CF93DF93C0EAD6E010E21E8341
S11305A081EE0E9459041D83DF91CF911F9108951C
S11305B080E00E94170281FD0CC0682F636080E018
S11305C00E9455028FE79EE30197F1F700C00000F7
S11305D005C0682F616080E00E9455028FE094E0BE
S11305E00197F1F700C0000060E787E00E94550220
S11305F04091052062E470E28AE00E9429020E9490
S1130600BA020E94C90280E88093A5068FE094E0B4
S11306100197F1F700C00000089580E00E941702DE
S1130620682F626080E00E9455020895EF92FF9265
S11306300F931F93CF93DF937C018B01EA0160E753
S113064087E00E945502982F9072F7019083982FAB
S11306509071F801908380748883DF91CF911F910A
S11306600F91FF90EF9008950F931F93CF93DF9313
S1130670C82F8B01811107C04091052050E082E40E
S113068090E20E94A508C73080F5C23058F4EC2FE0
S1130690F0E0E65CFF4D40910520B80180810E94A6
S11306A0290209C0EC2FF0E0E65CFF4D41E0B801FF
S11306B080810E942902D0E0FE01EC5CFF4D609134
S11306C0062080810E94550282E00E941702C25DCA
S11306D0DF4D61E070E0088002C0660F771F0A9466
S11306E0E2F7682B82E00E945502DF91CF911F91BF
S11306F00F9108951F93CF93DF93C0EAD6E010E2E1
S11307001E8380E50E94590483E70E9459041D83D7
S1130710DF91CF911F9108958DE10E941702682FF8
S113072064608DE10E9455028DE10E9417028111DF
S11307300AC00E947A038DE10E941702682F646048
S11307408DE10E9455028CE10E941702682F6F63AD
S11307508CE10E94550281E08093472008951F9305
S1130760CF93DF93C0EAD6E010E21E8380E60E94B6
S113077059048FEF0E9459041D83DF91CF911F917B
S1130780089588232CF0682F85E00E94550208956F
S11307906FE785E00E9455020895882329F06FE3EE
S11307A081E00E945502089560E081E00E945502B4
S11307B00895CF93C82F86E00E941702897FC670E0
S11307C0682F6C2B86E00E945502CF910895CF9339
S11307D0C82F86E00E941702877D9C2F9872682F8D
S11307E0692B86E00E94550286E00E941702C81316
S11307F002C081E001C080E0CF910895CF93C82F5B
S113080080E00E941702837FCC70682F6C2B80E0FD
S11308100E945502CF910895682B84E00E945502EE
S1130820089560E787E00E94550208958FE39CE9EC
S11308300197F1F700C000006FE080E50E940C040E
S113084086E00E94D90380E20E94E703882319F01E
S113085081E08093072080E00E94E7038CE00E94FF
S1130860FE0360E08CE10E9455028CE40E94C10307
S11308700E9411040E94BA020E94C9020895E0E491
S1130880F6E088E0818384E0828382E08183E0EA89
S1130890F6E080E2818380E4828380E88183E0EA79
S11308A0F8E088E1848380EC8583178281E0868385
S11308B008958093A0088091A10886FFFCCFE0EA08
S11308C0F8E0818180648183808108958091AD20E6
S11308D09091AC20891710F0891B0895891B8C59BD
S11308E00895CF93C091AC200E9466048823E1F35D
S11308F0EC2FF0E0E85BFF4D808191E09C0F943693
S113090008F090E09093AC20CF9108950E94710478
S113091090E008952091132191E0920F809112218B
S1130920943610F09DE9920F891710F0891B0895F1
S1130930891B8C590895CF93C82F03C081E28093FB
S1130940A30B0E948A048823C9F380911321E82F02
S1130950F0E0E255FF4DC0838F5F843608F080E0FD
S1130960E0EAF0E09281292F2E7F228380931321E5
S113097081E28093A30B9283CF910895CF93DF9369
S1130980D82FCFEF03C0CC2329F0C1500E948A0492
S11309908823C9F3CC2359F0DA3019F48DE00E948E
S11309A09B048D2F0E949B0480E090E002C081E0B4
S11309B090E0DF91CF9108954F925F926F927F9272
S11309C08F929F92AF92BF92CF92DF92EF92FF925B
S11309D00F931F93CF93DF9329013A012E2D21709A
S11309E0C0E1D0E002C0D595C7952A95E2F700236F
S11309F0F4F50E945D076B017C01C301B2010E9402
S1130A005D074B015C01DD27BE01DD0F880B990BEF
S1130A100E945F07A50194010E94EB079B01AC01B2
S1130A20C701B6010E94BC0620E030E040E85FE365
S1130A300E944F066B017C01112701950CF410955F
S1130A4061E070E002C0660F771F0A95E2F7072E97
S1130A50000C880B990B0E945F07A70196010E9466
S1130A60EB070E9458080E942E07CB013CC00E944D
S1130A705D074B015C01C301B2010E945D076B017C
S1130A807C01BE017727072E000C880B990B0E946E
S1130A905F07A70196010E94EB079B01AC01C5010A
S1130AA0B4010E94BC066B017C0161E070E002C0ED
S1130AB0660F771F0A95E2F7072E000C880B990B37
S1130AC00E945F079B01AC01C701B6010E94BC06EE
S1130AD020E030E040E85FE30E944F060E9458089F
S1130AE00E942E07CB01DF91CF911F910F91FF90B0
S1130AF0EF90DF90CF90BF90AF909F908F907F90BA
S1130B006F905F904F9008954F925F926F927F9293
S1130B108F929F92AF92BF92EF920F93CF93DF93F6
S1130B202B013C0149015A01D02FC9EF0CC0ED2E15
S1130B300C2FA5019401C301B2010E94DC048115AC
S1130B40904118F0CF5FC83094F38C2FDF91CF9190
S1130B500F91EF90BF90AF909F908F907F906F9088
S1130B605F904F9008958F929F92AF92BF92EF92B1
S1130B700F93CF934B015C0100E020E032EC41E0A5
S1130B8050E00E948405C82FE12C082F20E032ECAD
S1130B9041E050E0C501B4010E94DC04E0EAF6E063
S1130BA028E1228B38E03583318334E03283E0EA74
S1130BB0FBE08683C295C07F9F70C92BC7832483C3
S1130BC080E28383E0EAF0E0828183608283E6E36B
S1130BD0F1E288E090E28083918382839383CF91D2
S1130BE00F91EF90BF90AF909F908F9008951F92B8
S1130BF00F920FB60F9211240BB60F928F939F93FF
S1130C00EF93FF938091AD20E82FF0E09091A00B3B
S1130C10E85BFF4D90838F5F843608F080E090910D
S1130C20AC2089138093AD20FF91EF919F918F9118
S1130C300F900BBE0F900FBE0F901F9018951F9230
S1130C400F920FB60F9211240BB60F922F938F931E
S1130C509F93EF93FF938091122190911321891711
S1130C6059F0E82FF0E0E255FF4D20812093A00BCE
S1130C708F5F843608F080E0891303C090E290937C
S1130C80A30B80931221FF91EF919F918F912F914C
S1130C900F900BBE0F900FBE0F901F9018955058D9
S1130CA0BB27AA270E9467060C94B1070E94A307DA
S1130CB038F00E94AA0720F039F49F3F19F426F473
S1130CC00C94A0070EF4E095E7FB0C949A07E92F27
S1130CD00E94C20758F3BA1762077307840795077F
S1130CE020F079F4A6F50C94E4070EF4E0950B2EAD
S1130CF0BA2FA02D0B01B90190010C01CA01A0016A
S1130D001124FF27591B99F0593F50F4503E68F1C4
S1130D101A16F040A22F232F342F4427585FF3CF05
S1130D20469537952795A795F0405395C9F77EF4D6
S1130D301F16BA0B620B730B840BBAF09150A1F01F
S1130D40FF0FBB1F661F771F881FC2F70EC0BA0FA5
S1130D50621F731F841F48F4879577956795B7952D
S1130D60F7959E3F08F0B0CF9395880F08F0992728
S1130D70EE0F9795879508950E94D0060C94B107BD
S1130D800E94AA0758F00E94A30740F029F45F3F8D
S1130D9029F00C949A0751110C94E5070C94A007C0
S1130DA00E94C20768F39923B1F3552391F3951B6D
S1130DB0550BBB27AA2762177307840738F09F5F78
S1130DC05F4F220F331F441FAA1FA9F335D00E2EE5
S1130DD03AF0E0E832D091505040E695001CCAF752
S1130DE02BD0FE2F29D0660F771F881FBB1F261715
S1130DF037074807AB07B0E809F0BB0B802DBF01EC
S1130E00FF2793585F4F3AF09E3F510578F00C94BA
S1130E109A070C94E5075F3FE4F3983ED4F3869574
S1130E2077956795B795F7959F5FC9F7880F911DDB
S1130E309695879597F90895E1E0660F771F881FC7
S1130E40BB1F621773078407BA0720F0621B730B7A
S1130E50840BBA0BEE1F88F7E09508950E94CA0729
S1130E6088F09F5798F0B92F9927B751B0F0E1F067
S1130E70660F771F881F991F1AF0BA95C9F714C017
S1130E80B13091F00E94E407B1E008950C94E407B6
S1130E90672F782F8827B85F39F0B93FCCF3869550
S1130EA077956795B395D9F73EF4909580957095AD
S1130EB061957F4F8F4F9F4F0895E89409C097FB2A
S1130EC03EF490958095709561957F4F8F4F9F4F1D
S1130ED09923A9F0F92F96E9BB279395F695879561
S1130EE077956795B795F111F8CFFAF4BB0F11F424
S1130EF060FF1BC06F5F7F4F8F4F9F4F16C08823CB
S1130F0011F096E911C0772321F09EE8872F762F00
S1130F1005C0662371F096E8862F70E060E02AF041
S1130F209A95660F771F881FDAF7880F969587952D
S1130F3097F9089597F99F6780E870E060E0089555
S1130F409FEF80EC089500240A94161617061806DD
S1130F500906089500240A941216130614060506B9
S1130F600895092E0394000C11F4882352F0BB0F4A
S1130F7040F4BF2B11F460FF04C06F5F7F4F8F4FAD
S1130F809F4F089557FD9058440F551F59F05F3FE8
S1130F9071F04795880F97FB991F61F09F3F79F097
S1130FA087950895121613061406551FF2CF469519
S1130FB0F1DF08C0161617061806991FF1CF86959B
S1130FC07105610508940895E894BB27662777277F
S1130FD0CB0197F908950E94FE070C94B1070E9473
S1130FE0A30738F00E94AA0720F0952311F00C946F
S1130FF09A070C94A00711240C94E5070E94C207D9
S113100070F3959FC1F3950F50E0551F629FF00157
S1131010729FBB27F00DB11D639FAA27F00DB11D70
S1131020AA1F649F6627B00DA11D661F829F2227F9
S1131030B00DA11D621F739FB00DA11D621F839F80
S1131040A00D611D221F749F3327A00D611D231F56
S1131050849F600D211D822F762F6A2F11249F57A4
S113106050409AF0F1F088234AF0EE0FFF1FBB1FA7
S1131070661F771F881F91505040A9F79E3F510566
S113108080F00C949A070C94E5075F3FE4F3983ED4
S1131090D4F3869577956795B795F795E7959F5F10
S11310A0C1F7FE2B880F911D9695879597F90895A2
S11310B00E94CA07E8F09E37E8F09639B8F49E38E3
S11310C048F4672F782F8827985FF9CF869577950E
S11310D0679593959539D0F3B62FB1706B0F711D49
S11310E0811D20F487957795679593950C947C08DA
S11310F00C9497080C94E507882371F4772321F066
S11311009850872B762F07C0662311F499270DC0BA
S11311109051862B70E060E02AF09A95660F771F55
S1131120881FDAF7880F9695879597F908959F3F5A
S113113031F0915020F4879577956795B795880F8E
S1131140911D9695879597F90895FB01DC0102C0DE
S113115001900D9241505040D8F70895FB01DC01F5
S11311604150504030F08D910190801919F40020C5
S1131170B9F7881B990B0895CF93DF93CDB7DEB7EA
S1131180AE014A5F5F4FFA0161917191AF018091A5
S11311903821909139210E940009DF91CF9108955F
S11311A00F931F93CF93DF93E0913821F09139216E
S11311B0238121FF1BC08C01D0E0C0E0F8018191A4
S11311C08F016091382170913921DB011896ED91DE
S11311D0FC911997882331F01995892B79F3DFEF66
S11311E0CFEFECCF8AE01995892B19F08FEF9FEFA1
S11311F002C08D2F9C2FDF91CF911F910F910895E5
S11312002F923F924F925F926F927F928F929F9212
S1131210AF92BF92CF92DF92EF92FF920F931F9300
S1131220CF93DF93CDB7DEB72B97CDBFDEBF6C0175
S11312307B018A01FC0116821782838181FFCCC164
S1131240CE0101963C01F6019381F70193FD85914E
S113125093FF81917F01882309F4BAC1853239F45F
S113126093FD859193FF81917F01853229F4B60125
S113127090E00E941A0BE7CF912C212C312CFFE136
S1131280F315D8F08B3279F038F4803279F0833268
S1131290A1F4232D20611DC08D3261F0803369F4E7
S11312A0232D216016C0832D8260382EE32DE46047
S11312B03E2E2AC0F32DF8601DC037FC2DC020ED52
S11312C0280F2A3040F08E32B9F436FC81C1232D28
S11312D02064322E19C036FE06C08AE0989E200D86
S11312E01124922E11C0EAE02E9E200D1124222EEC
S11312F0F32DF0623F2E08C08C3621F4832D8068D4
S1131300382E02C0883641F4F70193FD859193FF8E
S113131081917F018111B3CF982F9F7D9554933094
S113132028F40C5F1F4F9FE399830DC0833631F07F
S1131330833771F0833509F059C021C0F8018081E9
S113134089830E5F1F4F88248394912C530113C00B
S11313502801F2E04F0E511CF801A080B18036FE46
S113136003C0692D70E002C06FEF7FEFC5010E94DA
S11313700F0B4C018201F32DFF773F2E16C028017D
S113138022E0420E511CF801A080B18036FE03C059
S1131390692D70E002C06FEF7FEFC5010E94040B5E
S11313A04C01F32DF0683F2E820133FC1BC0822DCB
S11313B090E088169906B0F4B60180E290E00E94AD
S11313C01A0B2A94F4CFF50137FC859137FE8191ED
S11313D05F01B60190E00E941A0B21102A9421E0CB
S11313E0821A91088114910471F7E8C0843611F0CF
S11313F0893641F5F80137FE07C060817181828129
S113140093810C5F1F4F08C060817181072E000C0F
S1131410880B990B0E5F1F4FF32DFF763F2E97FF1E
S113142009C090958095709561957F4F8F4F9F4F20
S1131430F0683F2E2AE030E0A3010E94560B882E6C
S1131440861845C0853731F4232D2F7EB22E2AE02D
S113145030E025C0932D997FB92E8F36C1F018F452
S1131460883579F0B5C0803719F0883721F0B0C0DD
S1131470E92FE061BE2EB4FE0DC0FB2DF460BF2E3B
S113148009C034FE0AC0292F2660B22E06C028E007
S113149030E005C020E130E002C020E132E0F80194
S11314A0B7FE07C060817181828193810C5F1F4FF9
S11314B006C06081718180E090E00E5F1F4FA30140
S11314C00E94560B882E8618FB2DFF773F2E36FE82
S11314D00DC0232D2E7FA22E891458F434FE0BC088
S11314E032FC09C0832D8E7EA82E05C0B82CA32CF7
S11314F003C0B82C01C0B92CA4FE0FC0FE01E80D36
S1131500F11D8081803321F49A2D997EA92E09C082
S1131510A2FE06C0B394B39404C08A2D867809F061
S1131520B394A3FC11C0A0FE06C0B21488F4280C26
S1131530922C9B180EC0B21460F4B60180E290E0C5
S11315400E941A0BB394F7CFB21418F42B1802C0EC
S1131550982C212CA4FE10C0B60180E390E00E94D8
S11315601A0BA2FE17C0A1FC03C088E790E002C0DA
S113157088E590E0B6010CC08A2D867859F0A1FE6A
S113158002C08BE201C080E2A7FC8DE2B60190E0CC
S11315900E941A0B891438F4B60180E390E00E948B
S11315A01A0B9A94F7CF8A94F301E80DF11D808108
S11315B0B60190E00E941A0B8110F5CF222009F4A5
S11315C042CEB60180E290E00E941A0B2A94F6CF34
S11315D0F6018681978102C08FEF9FEF2B96CDBFD6
S11315E0DEBFDF91CF911F910F91FF90EF90DF90BD
S11315F0CF90BF90AF909F908F907F906F905F90AF
S11316004F903F902F900895FC01059061507040D9
S11316100110D8F7809590958E0F9F1F0895FC01B7
S11316206150704001900110D8F7809590958E0F0D
S11316309F1F08950F931F93CF93DF93FB01238183
S113164021FD03C08FEF9FEF2CC022FF16C04681FF
S11316505781248135814217530744F4A081B18115
S11316609D012F5F3F4F208331838C9326813781E7
S11316702F5F3F4F2683378314C08B01EC01FB019E
S11316800084F185E02D1995892BE1F6D801169691
S11316908D919C911797019616968D939C9317970D
S11316A0CE01DF91CF911F910F910895FA01AA27DE
S11316B0283051F1203181F1E8946F936E7F6E5F91
S11316C07F4F8F4F9F4FAF4FB1E03ED0B4E03CD03F
S11316D0670F781F891F9A1FA11D680F791F8A1F22
S11316E0911DA11D6A0F711D811D911DA11D20D089
S11316F009F468943F912AE0269F11243019305D43
S11317003193DEF6CF010895462F4770405D419333
S1131710B3E00FD0C9F7F6CF462F4F70405D4A3380
S113172018F0495D31FD4052419302D0A9F7EACF48
S1131730B4E0A6959795879577956795BA95C9F777
S113174000976105710508959B01AC010A2E06946A
S11317505795479537952795BA95C9F7620F731F23
S10F1760841F951FA01D0895F894FFCF6E
S113176C48764130310520010000000300000000E0
S113177CBE04860400001B5B481B5B324A1B5B33B4
S113178C4A0048456C6C4F00574F524C44000001C2
S113179C020304051112131415160A0B0C0D0E0F6B
S9030000FC
